:060000000A128A11922E83
:100D240083010A128A112D2F0530831203139200B6
:100D34002430831603139200790883120313950059
:100D44000C309700080005308312031392007D30A5
:100D54008316031392007908831203139B000C304B
:100D64009D0008000310003003180130F600F11F45
:100D7400BC2EBD2EC62EF009F109F00A0319F10AA2
:100D8400F6010314F60DC62EF31FC92ECA2ED32E58
:100D9400F209F309F20A0319F30A0130F4007408A2
:100DA400F6060030F7000030F800710870040319EB
:100DB400DC2EDD2E1B2FF5010314F50DED2E013075
:100DC4000310F00DF10DFF3E031DE22E0130F4007F
:100DD4007408F507ED2EF11FF02EF12EE12EF32EFF
:100DE400F32E01300310F70DF80DFF3E031DF42E12
:100DF40071087302031D002F70087202031C032F75
:100E0400042F0C2F7008F2027108031CF303F30281
:100E140077140C2F01300310F10CF00CFF3E031D6E
:100E24000D2F0130F502031D182F192FF32E1B2F40
:100E34001B2F7608031D1F2F252FF709F809F70A22
:100E44000319F80A252F7808F101F1077708F00152
:100E5400F0072C2F0800831603130514870183124F
:100E640003138701352F0130831203139F00803051
:100E7400831603139F00831203131F15412F1F1999
:100E8400442F452F412F462F1E08FB00FC0108303C
:100E9400FF000310FB0DFC0DFF0B4B2F7B0883168B
:100EA40003131E0483120313A0007C08A1001E0870
:100EB400FB00FC010830FF000310FB0DFC0DFF0BD1
:100EC4005E2F7B08831603131E0483120313A200F0
:100ED4007C08A3000430F0000030F1002108F30185
:100EE400F3072008F201F2070A128A11B4260A1243
:100EF4008A117108FA01FA077008F901F9070A1250
:100F04008A1196260A128A110230F0000030F1008C
:100F1400831203132308F301F3072208F201F207F3
:100F24000A128A11B4260A128A117108FA01FA0700
:100F34007008F901F9070A128A11A5260A128A1102
:100F4400831203132108803AFF0081307F02031DBE
:100F5400AD2FF5302002031CB02FB12FB62F831212
:100F6400031307148711B62F831203132308803A3F
:100F7400FF0081307F02031DC12FF5302202031CC4
:100F8400C42FC52FCA2F8312031307128716CA2F23
:100F9400831203132108803AFF0081307F02031D6E
:100FA400D52FF43020020318D82FD92FDE2F831227
:100FB400031307108715DE2F831203132308803AC7
:100FC400FF0081307F02031DE92FF4302202031851
:100FD400EC2FED2FF22F8312031307168712F22F33
:100FE4004130FC00EE30FB00FB0BF62FFC0BF62F20
:0C0FF4006400352F352F0A128A110028E6
:00000001FF
