:060000000A128A118F2F85
:100EE800C034F934A434B034993492348234F834A8
:100EF800083490347E088A007F0882007E270A1210
:100F08008A118000840A04087D0603190034FF0A48
:100F18000319FE0A822F83133730FD000730FE00C5
:100F28007430FF002D3084000A128A1182270A12B9
:100F38008A1183010A128A11A12F203084002D30D2
:100F4800F0000408F1000A30F200700884008313EE
:100F58000008F300F00A7108840073088000F10AA1
:100F6800F20BA92F83120313880183160313880138
:100F7800BD2F03100030031801308312AC000A3073
:100F88002C02031CC82FC92FCB2FBD2FBD2F2C0817
:100F9800203E84008313000888000030AA00003037
:100FA800AB0027302B02103003192A02031CDD2F57
:100FB800DE2FE02FF02FF02F0130AA070318AB0A1D
:100FC8000030AB0727302B02103003192A02031C0C
:100FD800EE2FEF2FE02FF02F0130F0007008AC0754
:100FE8000A302C02031CF92FFA2FCB2FBD2FBD2F4F
:080FF800BD2F0A128A11002826
:00000001FF
