:100000000A128A11F22D00308A000408840A82073D
:1000100000344D34313446344F3452345734203464
:100020004D34323452344534563400344D34313446
:1000300052344534563420344D34323446344F34FF
:100040005234573400344D34313420344D3432344A
:1000500046344F345234573400344D343134203424
:100060004D343234523445345634003441346C34D7
:100070006C3420344F344634463400344D343134FB
:1000800046344F345234573400344D3431345234C2
:0600900045345634003433
:100BE40083010A128A11612EF20072088312031320
:100BF40086000712871207170A128A1118260A128A
:100C04008A118312031307130800F2007208831277
:100C1400031386000716871207170A128A1118266B
:100C24000A128A1183120313071308000030F0001C
:100C34000030F10007307102D03003197002031C38
:100C4400242E252E272E372E372E0130F007031899
:100C5400F10A0030F10707307102D0300319700235
:100C6400031C352E362E272E372E0800F5000030B3
:100C7400F6000030F700522E7608750784000A1239
:100C84008A1103200A128A110A128A1107260A12EB
:100C94008A110130F6070318F70A0030F707522EBD
:100CA4007708803AF40080307402031D5B2E7308C9
:100CB4007602031C5E2E5F2E3E2E602E08008312E9
:100CC4000313860188018701F0308316031388001B
:100CD4008701860138300A128A11F6250A128A1110
:100CE4000C300A128A11F6250A128A1110300A12DF
:100CF4008A11F6250A128A1101300A128A11F62580
:100D04000A128A1106300A128A11F6250A128A1169
:100D140080300A128A11F6250A128A11C0300A128A
:100D24008A11F6250A128A11972E831203130815C5
:100D340088100810081E9F2EA02EC02E071487109E
:100D4400071187110A128A1118260A128A11013012
:100D54000A128A11F6250A128A110630F800780858
:100D6400F30036300A128A1138260A128A11C0306A
:100D74000A128A11F6250A128A11C02E831203134D
:100D8400881EC52EC62EE62E07108710071187155C
:100D94000A128A1118260A128A1101300A128A11BB
:100DA400F6250A128A110530F8007808F300283075
:100DB4000A128A1138260A128A11C0300A128A11BC
:100DC400F6250A128A11E62E83120313081FEB2E4E
:100DD400EC2E0C2F07148710071187150A128A119D
:100DE40018260A128A1101300A128A11F6250A12EB
:100DF4008A110C30F8007808F30001300A128A11C5
:100E040038260A128A110C300A128A11F6250A129F
:100E14008A110C2F83120313081188140810081E5A
:100E2400142F152F352F07108714071187110A1255
:100E34008A1118260A128A1101300A128A11F6251B
:100E44000A128A110530F8007808F3003D300A12BE
:100E54008A1138260A128A110C300A128A11F625D0
:100E64000A128A11352F83120313881E3A2F3B2F3F
:100E7400602F07148710071587110A128A11182684
:100E84000A128A1101300A128A11F6250A128A11ED
:100E94000930F8007808F3001B300A128A1138264A
:100EA4000A128A110C300A128A11F6250A128A11C2
:100EB4000A128A1118260A128A11602F8312031348
:100EC400081F652F662F862F0710871407158711B3
:100ED4000A128A1118260A128A1101300A128A117A
:100EE400F6250A128A110C30F8007808F3000E3047
:100EF4000A128A1138260A128A110C300A128A112F
:100F0400F6250A128A11862F8312031308118810FA
:100F14000814081E8E2F8F2FAF2F07108710071568
:100F240087110A128A1118260A128A1101300A122C
:100F34008A11F6250A128A110630F8007808F3009F
:100F44001E300A128A1138260A128A110C300A122B
:100F54008A11F6250A128A11AF2F83120313881EF1
:100F6400B42FB52FD52F07108714071187150A1230
:100F74008A1118260A128A1101300A128A11F625DA
:100F84000A128A110830F8007808F30025300A1292
:100F94008A1138260A128A110C300A128A11F6258F
:100FA4000A128A11D52F83120313081FDA2FDB2F9D
:100FB400972E07108710071187110A128A11182615
:100FC4000A128A1101300A128A11F6250A128A11AC
:100FD4000730F8007808F3002E300A128A113826F8
:100FE4000A128A110C300A128A11F6250A128A1181
:0C0FF400972E972E972E0A128A110028C3
:00000001FF
