:060000000A128A11F62E1F
:100DCA007E088A007F088200E5260A128A118000BE
:100DDA00840A04087D0603190034FF0A0319FE0A6F
:100DEA00E92E83134E30FD000730FE000830FF0065
:100DFA00383084000A128A11E9260A128A118301FC
:100E0A000A128A111E2F413454342B344334463487
:100E1A0055344E343D3430340D3400344134543476
:100E2A002B344334463455344E343D3431340D3446
:100E3A0000348312031387012430831603139800A6
:100E4A0090308312031398004030831603139900DD
:100E5A00203084003830F0000408F1000B30F20032
:100E6A007008840083130008F300F00A71088400F4
:100E7A0073088000F10AF20B352F00308312031336
:100E8A00B6000030B7003708803AFF0080307F0292
:100E9A00031D512F0C303602031C542F552F572F88
:100EAA00872F872F831203133608203E840083136B
:100EBA0000089900602F0C1E632F642F602F0C12FC
:100ECA000330F2008830F1005630F000F00B6B2F3F
:100EDA00F10B6B2FF20B6B2F013083120313B60742
:100EEA000318B70A0030B7073708803AFF00803086
:100EFA007F02031D822F0C303602031C852F862F9A
:100F0A00572F872F7F30F2005630F1008430F000DF
:100F1A00F00B8D2FF10B8D2FF20B8D2F942F2B3081
:100F2A0084004330F0000408F1000B30F20070082E
:100F3A00840083130008F300F00A71088400730820
:100F4A008000F10AF20B9C2F003083120313B600C3
:100F5A000030B7003708803AFF0080307F02031D57
:100F6A00B82F0C303602031CBB2FBC2FBE2FEE2F1E
:100F7A00EE2F8312031336082B3E840083130008D6
:100F8A009900C72F0C1ECA2FCB2FC72F0C12033064
:100F9A00F2008830F1005630F000F00BD22FF10B3E
:100FAA00D22FF20BD22F013083120313B607031884
:100FBA00B70A0030B7073708803AFF0080307F024F
:100FCA00031DE92F0C303602031CEC2FED2FBE2F28
:100FDA00EE2F7F30F2005630F1008430F000F00B33
:100FEA00F42FF10BF42FF20BF42FFB2FFC2FFC2F15
:060FFA000A128A11002812
:00000001FF
