:060000000A128A11E42B34
:1007C80083010A128A110E2D83120313220887004F
:1007D800061486100A128A1109240A128A11831231
:1007E8000313061506110800F2007208831203139A
:1007F8008700061086100A128A1109240A128A1123
:10080800831203130615061108000030F0000030AB
:10081800F10007307102D03003197002031C152C47
:10082800162C182C282C282C0130F0070318F10A54
:100838000030F10707307102D03003197002031C31
:10084800262C272C182C282C0800031000300318FD
:10085800013083120313A100FC1F332C342C3D2CD0
:10086800FB09FC09FB0A0319FC0AA1010314A10DE9
:100878003D2CFA1F402C412C472CF909FA09F90A9A
:100888000319FA0A472C7A08790403194C2C4D2CC1
:10089800832CA0010314A00D5D2C01300310F90D69
:1008A800FA0DFF3E031D522C0130FD007D08A00704
:1008B8005D2CFA1F602C612C512C632C632C7A0858
:1008C8007C02031D692C79087B02031C6C2C6D2C9F
:1008D800742C7908FB027A08031CFC03FC02742CB4
:1008E80001300310FA0CF90CFF3E031D752C013082
:1008F800A002031D802C812C632C832C832C2108BF
:10090800031D872C8D2CFB09FC09FB0A0319FC0A23
:100918008D2C7C08FA01FA077B08F901F907942C59
:1009280008000310003003180130F600F11F9D2C59
:100938009E2CA72CF009F109F00A0319F10AF60117
:100948000314F60DA72CF31FAA2CAB2CB42CF20918
:10095800F309F20A0319F30A0130F4007408F606E1
:100968000030F7000030F800710870040319BD2C3E
:10097800BE2CFC2CF5010314F50DCE2C0130031010
:10098800F00DF10DFF3E031DC32C0130F400740877
:10099800F507CE2CF11FD12CD22CC22CD42CD42C60
:1009A80001300310F70DF80DFF3E031DD52C71081B
:1009B8007302031DE12C70087202031CE42CE52C61
:1009C800ED2C7008F2027108031CF303F30277148C
:1009D800ED2C01300310F10CF00CFF3E031DEE2C42
:1009E8000130F502031DF92CFA2CD42CFC2CFC2C1C
:1009F8007608031D002D062DF709F809F70A0319D3
:100A0800F80A062D7808F101F1077708F001F007D8
:100A18000D2D080083160313870183120313870122
:100A2800FF3083160313880083120313880183168B
:100A38000313860183120313860138300A128A11C0
:100A4800F8230A128A110C300A128A11F8230A12A2
:100A58008A1110300A128A11F8230A128A110630F4
:100A68000A128A11F8230A128A1180300A128A118E
:100A7800F8230A128A11C0300A128A11F8230A12BE
:100A88008A11462D83120313081C4B2D4C2D5D2D06
:100A980001300A128A11F8230A128A110A128A11DD
:100AA80090250A128A110A128A1109240A128A1137
:100AB8005D2D83120313881C622D632D742D013064
:100AC8000A128A11F8230A128A110A128A11602658
:100AD8000A128A110A128A1109240A128A11742D1B
:100AE80083120313081D792D7A2D462D01300A1221
:100AF8008A11F8230A128A110A128A1130270A1257
:100B08008A110A128A1109240A128A11462D462DC1
:100B1800462D0A128A1100280130831203139F0000
:100B28008030831603139F000A128A1109240A12BF
:100B38008A11831203131F15A12D1F19A42DA52D8A
:100B4800A12DA62D80300A128A11F8230A128A11C3
:100B5800831203131E08A400A5010830FF00031028
:100B6800A40DA50DFF0BB32D831603131E088312C6
:100B780003132407A60025080318250AA700E83050
:100B8800F0000330F1002708F301F3072608F2010B
:100B9800F2070A128A1195240A128A117008303E47
:100BA80083120313A20071080318013E003EA3003C
:100BB8000A128A11E8230A128A110A30F900003051
:100BC800FA006430F0000030F100831203132708A4
:100BD800F301F3072608F201F2070A128A11952495
:100BE8000A128A117108FC01FC077008FB01FB0757
:100BF8000A128A1129240A128A117908303E8312AE
:100C08000313A2007A080318013E003EA3000A124B
:100C18008A11E8230A128A110A30F9000030FA0012
:100C28000A30F0000030F100831203132708F301A3
:100C3800F3072608F201F2070A128A1195240A120C
:100C48008A117108FC01FC077008FB01FB070A12F6
:100C58008A1129240A128A117908303E8312031353
:100C6800A2007A080318013E003EA3000A128A1166
:100C7800E8230A128A110A30F9000030FA008312B8
:100C880003132708FC01FC072608FB01FB070A12CF
:100C98008A1129240A128A117908303E8312031313
:100CA800A2007A080318013E003EA3000A128A1126
:100CB800E8230A128A1108000930831203139F00DF
:100CC8008030831603139F000A128A1109240A121E
:100CD8008A11831203131F15712E1F19742E752E76
:100CE800712E762E80300A128A11F8230A128A1180
:100CF800831203131E08A400A5010830FF00031087
:100D0800A40DA50DFF0B832E831603131E08831253
:100D180003132407A60025080318250AA700E830AE
:100D2800F0000330F1002708F301F3072608F20169
:100D3800F2070A128A1195240A128A117008303EA5
:100D480083120313A20071080318013E003EA3009A
:100D58000A128A11E8230A128A110A30F9000030AF
:100D6800FA006430F0000030F10083120313270802
:100D7800F301F3072608F201F2070A128A119524F3
:100D88000A128A117108FC01FC077008FB01FB07B5
:100D98000A128A1129240A128A117908303E83120C
:100DA8000313A2007A080318013E003EA3000A12AA
:100DB8008A11E8230A128A110A30F9000030FA0071
:100DC8000A30F0000030F100831203132708F30102
:100DD800F3072608F201F2070A128A1195240A126B
:100DE8008A117108FC01FC077008FB01FB070A1255
:100DF8008A1129240A128A117908303E83120313B2
:100E0800A2007A080318013E003EA3000A128A11C4
:100E1800E8230A128A110A30F9000030FA00831216
:100E280003132708FC01FC072608FB01FB070A122D
:100E38008A1129240A128A117908303E8312031371
:100E4800A2007A080318013E003EA3000A128A1184
:100E5800E8230A128A1108001130831203139F0035
:100E68008030831603139F000A128A1109240A127C
:100E78008A11831203131F15412F1F19442F452F61
:100E8800412F462F80300A128A11F8230A128A113C
:100E9800831203131E08A400A5010830FF000310E5
:100EA800A40DA50DFF0B532F831603131E088312E1
:100EB80003132407A60025080318250AA700E8300D
:100EC800F0000330F1002708F301F3072608F201C8
:100ED800F2070A128A1195240A128A117008303E04
:100EE80083120313A20071080318013E003EA300F9
:100EF8000A128A11E8230A128A110A30F90000300E
:100F0800FA006430F0000030F10083120313270860
:100F1800F301F3072608F201F2070A128A11952451
:100F28000A128A117108FC01FC077008FB01FB0713
:100F38000A128A1129240A128A117908303E83126A
:100F48000313A2007A080318013E003EA3000A1208
:100F58008A11E8230A128A110A30F9000030FA00CF
:100F68000A30F0000030F100831203132708F30160
:100F7800F3072608F201F2070A128A1195240A12C9
:100F88008A117108FC01FC077008FB01FB070A12B3
:100F98008A1129240A128A117908303E8312031310
:100FA800A2007A080318013E003EA3000A128A1123
:100FB800E8230A128A110A30F9000030FA00831275
:100FC80003132708FC01FC072608FB01FB070A128C
:100FD8008A1129240A128A117908303E83120313D0
:100FE800A2007A080318013E003EA3000A128A11E3
:080FF800E8230A128A11080027
:00000001FF
