:060000000A128A11122809
:10000800FE000308F0000408F1000A08F200831259
:1000180003137F08F3000A128A1116290A128A119B
:100028002929831603138701831203138701831673
:100038000313880183120313880186010130831694
:100048000313860090308B002630840034308312EE
:100058000313A2000408A3000A30A40022088400A5
:1000680083130008A500A20A23088400250880003D
:10007800A30AA40B32280030F4000030F5000A125D
:100088008A11DD200A128A110030F4000030F500D0
:100098000A128A11DD200A128A1183120313A200A0
:1000A80009302202031859285A286B280030F40016
:1000B8000030F5000A128A11DD200A128A11831213
:1000C8000313A200A3012208B0002308B1000030E6
:1000D800F4000030F5000A128A11DD200A128A1194
:1000E80076287628831203133108B301B307300842
:1000F800B201B2073308803AFF0080307F02031D47
:10010800872809303202031C8A288B288D28C928A1
:10011800C928831203133208263E8400831300087B
:1001280087000030F4000030F5003308F701F707C6
:100138003208F601F6070A128A1100210A128A11FA
:10014800023083120313A4004430A300A930A20094
:10015800A20BAC28A30BAC28A40BAC28640001307C
:1001680083120313B2070318B30A0030B307330826
:10017800803AFF0080307F02031DC4280930320214
:10018800031CC728C8288D28C9280030F40000306F
:10019800F500FF30F6000030F7000A128A1100213E
:1001A8000A128A11D728D728762876280A128A119F
:1001B80012287408831203178D000C08F600F70143
:1001C800760883120313A0007708A100831603178B
:1001D8008C130C140230F8004430F700A930F600F4
:1001E800F60BF428F70BF428F80BF42864008312B4
:1001F80003132008FF2808007408831203178D00D2
:1002080076088C00831603178C130C1555308D0057
:10021800AA308D008C1410298C1813291429102940
:100228000C1108008B1C19291A291E29013088066F
:100238008B101E297308FF0072088A007108840059
:1002480070088300FE0E7E0E090083133E30FD0009
:100258000130FE004C30FF00343084000A128A114D
:100268003F210A128A1183010A128A1115287E0871
:100278008A007F0882003B210A128A118000840AC2
:1002880004087D0603190034FF0A0319FE0A3F29F2
:1002980008340C3404340634023403340134093489
:0402A80000340034EA
:00000001FF
