:060000000A128A11452ED0
:100C8A0083010A128A11812EF0004B2E831203135C
:100C9A008C1E502E512E4B2E8C121A087006031DD4
:100CAA00572E582E4A2E592E080070088312031305
:100CBA0088000714871007150730F3007D30F2000B
:100CCA00F20B652EF30B652E83120313071108002E
:100CDA00F2007208831203138800071087100715A1
:100CEA000730F1007D30F000F00B792EF10B792EF0
:100CFA008312031307110800243083160313980084
:100D0A00903083120313980040308316031399001E
:100D1A008030870083120313870183160313880127
:100D2A0083120313880138300A128A116D260A12B7
:100D3A008A110C300A128A116D260A128A11103091
:100D4A000A128A116D260A128A1106300A128A11AB
:100D5A006D260A128A1180300A128A116D260A1229
:100D6A008A11C0300A128A116D260A128A11BD2E02
:100D7A0047300A128A1149260A128A1150300A1279
:100D8A008A1149260A128A1152300A128A114926F0
:100D9A000A128A114D300A128A1149260A128A1138
:100DAA0043300A128A1149260A128A112C300A1271
:100DBA008A1149260A128A112C300A128A114926E6
:100DCA000A128A112C300A128A1149260A128A1129
:100DDA00003083120313C8000030C9004908803A62
:100DEA00FF0080307F02031DFC2E15304802031CD1
:100DFA00FF2E002F032F2E2F2E2F032F83120313C4
:100E0A008C1E082F092F032F8C121A082C3A031D47
:100E1A000F2F102F122F2E2F2E2F1A08F4004808EA
:100E2A00203E84007408831380000130C807031829
:100E3A00C90A0030C9074908803AFF0080307F029A
:100E4A00031D292F15304802031C2C2F2D2F032F89
:100E5A002E2F2C300A128A1149260A128A110030C2
:100E6A0083120313C8000030C9004908803AFF0002
:100E7A0080307F02031D432F15304802031C462F82
:100E8A00472F4A2F752F752F4A2F831203138C1E53
:100E9A004F2F502F4A2F8C121A082C3A031D562F07
:100EAA00572F592F752F752F1A08F4004808343E0A
:100EBA0084007408831380000130C8070318C90A24
:100ECA000030C9074908803AFF0080307F02031DBD
:100EDA00702F15304802031C732F742F4A2F752F59
:100EEA0080300A128A116D260A128A110030831282
:100EFA000313C8000030C9004908803AFF00803057
:100F0A007F02031D8A2F15304802031C8D2F8E2F56
:100F1A00902FB82FB82F831203134808203E84005D
:100F2A0083130008F400F5017408F0007508F10055
:100F3A000A128A115A260A128A11013083120313DD
:100F4A00C8070318C90A0030C9074908803AFF00D0
:100F5A0080307F02031DB32F15304802031CB62FC1
:100F6A00B72F902FB82FC0300A128A116D260A1295
:100F7A008A11003083120313C8000030C9004908DF
:100F8A00803AFF0080307F02031DCD2F15304802C2
:100F9A00031CD02FD12FD32FBD2EBD2E83120313A6
:100FAA004808343E840083130008F400F5017408ED
:100FBA00F0007508F1000A128A115A260A128A11DB
:100FCA00013083120313C8070318C90A0030C9077E
:100FDA004908803AFF0080307F02031DF62F153042
:100FEA004802031CF92FFA2FD32FBD2EBD2EBD2E7A
:060FFA000A128A11002812
:00000001FF
