:060000000A128A11132F01
:100E260083010A128A11612F8312031307117008B6
:100E360093001D2F8C1D202F212F1D2F8C11720822
:100E46009300252F8C1D282F292F252F8C11071550
:100E560008000930F0000030F100FF30F2000030E9
:100E6600F3000A128A1117270A128A110A30F000B3
:100E76000030F100FF30F2000030F3000A128A1150
:100E860017270A128A110B30F0000030F100FF30EC
:100E9600F2000030F3000A128A1117270A128A118B
:100EA6000C30F0000030F100FF30F2000030F300AB
:100EB6000A128A1117270A128A11080083160313C9
:100EC60094012030831203139400870183160313C1
:100ED60087120716871107110A128A112C270A1280
:100EE6008A11752F0030F7000030F8007808803A34
:100EF600FF0080307F02031D822F0A307702031C19
:100F0600852F862F882FB82FB82F0130F00000309C
:100F1600F1007808F301F3077708F201F2070A12E5
:100F26008A1117270A128A110D30F600A330F50030
:100F3600BD30F400F40B9D2FF50B9D2FF60B9D2F66
:100F460064000130F7070318F80A0030F80778083C
:100F5600803AFF0080307F02031DB32F0A307702EC
:100F6600031CB62FB72F882FB82F0030F90000309A
:100F7600FA007A08803AFF0080307F02031DC52FF1
:100F86000A307902031CC82FC92FCB2F752F752F56
:100F96000330F0000030F1007A08F301F307790816
:100FA600F201F2070A128A1117270A128A110D3066
:100FB600F600A330F500BD30F400F40BE02FF50B7E
:100FC600E02FF60BE02F64000130F9070318FA0A48
:100FD6000030FA077A08803AFF0080307F02031D4E
:100FE600F62F0A307902031CF92FFA2FCB2F752F13
:0A0FF600752F752F0A128A110028CA
:00000001FF
