:060000000A128A11B02E65
:100D600083010A128A11E42EF3007308831203131D
:100D700088000710871007150330F2008830F10053
:100D80005630F000F00BC22EF10BC22EF20BC22E29
:100D90008312031307110800F3007308831203136F
:100DA00088000714871007150330F2008830F1001F
:100DB0005630F000F00BDA2EF10BDA2EF20BDA2EB1
:100DC000831203130711080083120313860187019E
:100DD0008801F030831603138600870188013830BC
:100DE0000A128A11B4260A128A110C300A128A11C8
:100DF000B4260A128A1110300A128A11B4260A1275
:100E00008A1101300A128A11B4260A128A11063098
:100E10000A128A11B4260A128A1180300A128A1123
:100E2000B4260A128A11C0300A128A11B4260A1294
:100E30008A111A2F83120313061486100611061E38
:100E4000222F232F312F31300A128A11CC260A1279
:100E50008A112A2F83120313061A2F2F302F2A2FBD
:100E6000312F861E342F352F432F34300A128A112A
:100E7000CC260A128A113C2F83120313861A412FA3
:100E8000422F3C2F432F061F462F472F502F37301E
:100E90000A128A11CC260A128A11502F502F502F75
:100EA00083120313861F552F562F642F2A300A12E0
:100EB0008A11CC260A128A115D2F83120313861B16
:100EC000622F632F5D2F642F861406100611061EF5
:100ED0006A2F6B2F792F32300A128A11CC260A1210
:100EE0008A11722F83120313061A772F782F722F0D
:100EF000792F861E7C2F7D2F8B2F35300A128A1179
:100F0000CC260A128A11842F83120313861A892F82
:100F10008A2F842F8B2F061F8E2F8F2F9D2F3830D7
:100F20000A128A11CC260A128A11962F83120313F1
:100F3000061B9B2F9C2F962F9D2F861FA02FA12F26
:100F4000AF2F30300A128A11CC260A128A11A82F2C
:100F500083120313861BAD2FAE2FA82FAF2F0610C1
:100F600086100615061EB52FB62FC42F33300A1271
:100F70008A11CC260A128A11BD2F83120313061A76
:100F8000C22FC32FBD2FC42F861EC72FC82FD62F09
:100F900036300A128A11CC260A128A11CF2F8312F8
:100FA0000313861AD42FD52FCF2FD62F061FD92F54
:100FB000DA2FE82F39300A128A11CC260A128A1148
:100FC000E12F83120313061BE62FE72FE12FE82FF3
:100FD000861FEB2FEC2F1A2F23300A128A11CC26F2
:100FE0000A128A11F32F83120313861BF82FF92F8D
:100FF000F32F1A2F1A2F1A2F1A2F0A128A110028CC
:02400E003A3F37
:00000001FF
