:060000000A128A11AD2E68
:100D1C004D344F344E344B34593420344434203415
:100D2C004C34553446344634593400347E088A00E9
:100D3C007F0882009C260A128A118000840A04080B
:100D4C007D0603190034FF0A0319FE0AA02E831333
:100D5C004030FD000630FE008E30FF003230840043
:100D6C000A128A11A0260A128A1183010A128A1108
:100D7C00192F700883120313880007148710413051
:100D8C00F300EE30F200F20BC92EF30BC92E640007
:100D9C0083120313071507110800F200720883125F
:100DAC0003138800071087104130F100EE30F0007B
:100DBC00F00BDE2EF10BDE2E6400831203130715ED
:100DCC00071108007008831203178D0072088C003D
:100DDC00831603178C130C1555308D00AA308D001B
:100DEC008C14F82E8C18FB2EFC2EF82E0C110800EF
:100DFC007008831203178D000C08F200F3017208BF
:100E0C00F4007308F500831603178C130C142130AF
:100E1C00F3007630F200F20B112FF30B112F64005C
:100E2C007408182F08008316031387018312031309
:100E3C00870183160313880183120313880138304A
:100E4C000A128A11D3260A128A110C300A128A113C
:100E5C00D3260A128A1110300A128A11D3260A12CA
:100E6C008A1106300A128A11D3260A128A1180308E
:100E7C000A128A11D3260A128A11C0300A128A1158
:100E8C00D3260A128A11203084003230F60004086E
:100E9C00F7000E30F8007608840083130008F90080
:100EAC00F60A7708840079088000F70AF80B512FAE
:100EBC000030F0000030F1000A128A11FE260A12EE
:100ECC008A110030F0000030F1000A128A11FE265F
:100EDC000A128A11F6000E3076020318762F772F3D
:100EEC00882F0030F0000030F1000A128A11FE2623
:100EFC000A128A11F600F701760883120313AE006A
:100F0C007708AF000030F0000030F1000A128A11AF
:100F1C00FE260A128A11932F932F831203132F0884
:100F2C00B101B1072E08B001B0073108803AFF00BB
:100F3C0080307F02031DA42F0E303002031CA72F1C
:100F4C00A82FAA2FEC2FEC2F831203133008203E6E
:100F5C00840083130008F600F7017608F000770888
:100F6C00F1000A128A11BF260A128A110030F00011
:100F7C000030F100831203133108F301F30730083A
:100F8C00F201F2070A128A11E8260A128A1182303B
:100F9C00F700DD30F600F60BD12FF70BD12FD62F43
:100FAC00013083120313B0070318B10A0030B107E4
:100FBC003108803AFF0080307F02031DE72F0E308E
:100FCC003002031CEA2FEB2FAA2FEC2F0030F0007D
:100FDC000030F100FF30F2000030F3000A128A11E9
:100FEC00E8260A128A11FA2FFA2F932F932F0A123E
:040FFC008A1100282E
:00000001FF
