:060000000A128A11822F92
:100EC4004D344F344E344B3459342034443420346C
:100ED4004C3455344634463459340D3400347E0889
:100EE4008A007F08820071270A128A118000840A0E
:100EF40004087D0603190034FF0A0319FE0A752F3E
:100F040083134030FD000730FE006230FF003130B3
:100F140084000A128A1175270A128A1183010A129F
:100F24008A11942F2430831603139800903083126F
:100F3400031398004030831603139900A12F203027
:100F440084003130F0000408F1000F30F200700822
:100F5400840083130008F300F00A71088400730806
:100F64008000F10AF20BA92F003083120313AF00A3
:100F74000030B0003008803AFF0080307F02031D4B
:100F8400C52F0E302F02031CC82FC92FCB2FA12F22
:100F9400A12F831203132F08203E8400831300081B
:100FA4009900D42F0C1ED72FD82FD42F0C12033016
:100FB400F2008830F1005630F000F00BDF2FF10B17
:100FC400DF2FF20BDF2F013083120313AF07031857
:100FD400B00A0030B0073008803AFF0080307F024A
:100FE400031DF62F0E302F02031CF92FFA2FCB2FDF
:0C0FF400A12FA12FA12F0A128A110028A2
:00000001FF
