:060000000A128A11A52E70
:100D4A0083010A128A11412F700883120313930038
:100D5A00AE2E8C1DB12EB22EAE2E8C11080083122F
:100D6A00031307150D30F800A330F700BD30F60065
:100D7A00F60BBD2EF70BBD2EF80BBD2E64008312A9
:100D8A00031307110330F0000030F1000A128A1130
:100D9A00A9260A128A117308F101F1077208F001F3
:100DAA00F0070A128A11A9260A128A117508F10196
:100DBA00F1077408F001F0070A128A11A9260A122B
:100DCA008A110030F0000030F1000A128A11A926B7
:100DDA000A128A11831203130715080083120313D8
:100DEA0007150D30FA00A330F900BD30F800F80BF2
:100DFA00FC2EF90BFC2EFA0BFC2E64008312031353
:100E0A0007110630F0000030F1000A128A11A926F3
:100E1A000A128A1183120313071507110230F00010
:100E2A000030F1000A128A11A9260A128A117308DF
:100E3A00F101F1077208F001F0070A128A11A926D6
:100E4A000A128A117508F101F1077408F001F00716
:100E5A000A128A11A9260A128A117708F101F107E2
:100E6A007608F001F0070A128A11A9260A128A11D5
:100E7A008312031307150800831203138701103026
:100E8A008316031387008312031386018316031341
:100E9A008601940121308312031394000030F2007A
:100EAA000030F3000830F4000030F5004130F6005D
:100EBA000030F7000A128A11F3260A128A111A3030
:100ECA00FD004530FC007E30FB00FB0B6A2FFC0B5B
:100EDA006A2FFD0B6A2F0030F2000030F300083051
:100EEA00F4000030F5000A128A11B4260A128A1197
:100EFA000030F2000030F3000930F4000030F50051
:100F0A004230F6000030F7000A128A11F3260A125C
:100F1A008A111A30FD004530FC007E30FB00FB0BC5
:100F2A00942FFC0B942FFD0B942F0030F20000300D
:100F3A00F3000930F4000030F5000A128A11B426D1
:100F4A000A128A110030F2000030F3000A30F4006D
:100F5A000030F5004330F6000030F7000A128A111B
:100F6A00F3260A128A111A30FD004530FC007E3041
:100F7A00FB00FB0BBE2FFC0BBE2FFD0BBE2F003060
:100F8A00F2000030F3000A30F4000030F5000A12D3
:100F9A008A11B4260A128A110030F2000030F300D6
:100FAA000B30F4000030F5004430F6000030F70052
:100FBA000A128A11F3260A128A111A30FD004530E4
:100FCA00FC007E30FB00FB0BE82FFC0BE82FFD0B2F
:100FDA00E82F0030F2000030F3000B30F40000304C
:100FEA00F5000A128A11B4260A128A11FC2FFC2F64
:060FFA000A128A11002812
:00000001FF
