:100000000A128A11D22E00308A000408840A82075C
:1000100000344334483449345034203431342034AB
:10002000523458340034523445344334493456340D
:06003000453444340034A5
:100DA40083010A128A11492FF000831203130814D5
:100DB4008814DC2E8C1EDF2EE02EDC2E8C121A08FA
:100DC4007006031DE62EE72ED72E081088100800A3
:100DD4007008831203138600071483160313141177
:100DE4008312031387140730F3007D30F200F20BF3
:100DF400F92EF30BF92E8312031387100800F20067
:100E04007208831203138600071083160313141148
:100E14008312031387140730F1007D30F000F00BC8
:100E2400112FF10B112F8312031387100800F80000
:100E34000030F9000030FA00392F7908780784006F
:100E44000A128A1103200A128A11F600F7017608A1
:100E5400F0007708F1000A128A11EA260A128A11B0
:100E64000130F9070318FA0A0030FA07392F7A0813
:100E7400803AF6007508803A7602031D432F740801
:100E84007902031C462F472F1F2F482F080080305C
:100E94008316031387008312031387018316031336
:100EA40086018312031386018316031388018312B8
:100EB4000313880138300A128A1101270A128A1191
:100EC4000C300A128A1101270A128A1110300A12F0
:100ED4008A1101270A128A1106300A128A1101277F
:100EE4000A128A1180300A128A1101270A128A1101
:100EF400C0300A128A1101270A128A1183120313BD
:100F04000814881424308316031398009030831235
:100F1400031398004030831603139900912F831212
:100F2400031307110930F4000030F50001300A12F0
:100F34008A1119270A128A1180300A128A1101278C
:100F44000A128A112630FD00E830FC003E30FB0016
:100F5400FB0BAA2FFC0BAA2FFD0BAA2FB12F0130DC
:100F64000A128A1101270A128A1131300A128A11CF
:100F7400D6260A128A11831203130715C12F8C1E59
:100F8400C42FC52FC12F8C121A08FB00FC017B084B
:100F9400F0007C08F1000A128A11EA260A128A116A
:100FA40001300A128A1101270A128A110730F4004B
:100FB4000030F5000B300A128A1119270A128A111F
:100FC40080300A128A1101270A128A112630FD0084
:100FD400E830FC003E30FB00FB0BEE2FFC0BEE2F49
:100FE400FD0BEE2FF52F01300A128A1101270A1288
:0C0FF4008A11912F912F0A128A110028F7
:00000001FF
