:060000000A128A11A02F74
:100F0A003F3406345B344F3466346D347D340734F1
:100F1A007F346F347E088A007F0882008F270A1286
:100F2A008A118000840A04087D0603190034FF0A26
:100F3A000319FE0A932F83133530FD000730FE0094
:100F4A008530FF002B3084000A128A1193270A1277
:100F5A008A1183010A128A11B22F203084002B30A1
:100F6A00F0000408F1000A30F200700884008313CC
:100F7A000008F300F00A7108840073088000F10A7F
:100F8A00F20BBA2F83120313880183160313880105
:100F9A00CE2F03100030031801308312AA000A3042
:100FAA002A02031CD92FDA2FDC2FCE2FCE2F2A08A4
:100FBA00203E84008313000888001A30F20045306E
:100FCA00F1007E30F000F00BE82FF10BE82FF20B66
:100FDA00E82F0130F000700883120313AA070A30C1
:100FEA002A02031CF92FFA2FDC2FCE2FCE2FCE2F59
:060FFA000A128A11002812
:02400E003A3F37
:00000001FF
