:060000000A128A11A72E6E
:100D2C007E088A007F08820096260A128A118000AB
:100D3C00840A04087D0603190034FF0A0319FE0A0D
:100D4C009A2E83133630FD000630FE00B930FF00BA
:100D5C00203084000A128A119A260A128A11830101
:100D6C000A128A11B52F003408340C3404340634BA
:100D7C000234033401340934003400340C340634A6
:100D8C00033409340034003408340434023401349C
:100D9C0000340030F0000030F100273071021030C8
:100DAC0003197002031CDB2EDC2EDE2EEE2EEE2E33
:100DBC000130F0070318F10A0030F10727307102F7
:100DCC00103003197002031CEC2EED2EDE2EEE2ECD
:100DDC00080072308400831203132A088000840AEE
:100DEC002B088000840A2C088000840A2D088000BF
:100DFC00840A2E088000840A2F0880000030F80036
:100E0C000030F90000307902063003197802031C17
:100E1C00102F112F132F2F2F2F2F7808723E840095
:100E2C0000088312031387000A128A11CF260A12B4
:100E3C008A110130F8070318F90A0030F90700305D
:100E4C007902063003197802031C2D2F2E2F132F35
:100E5C002F2F080072308400831203133008800097
:100E6C00840A31088000840A32088000840A33081E
:100E7C008000840A34088000840A35088000003021
:100E8C00F8000030F90000307902063003197802BE
:100E9C00031C512F522F542F702F702F7808723E35
:100EAC00840000088312031387000A128A11CF26CC
:100EBC000A128A110130F8070318F90A0030F907F1
:100ECC0000307902063003197802031C6E2F6F2F45
:100EDC00542F702F0800363084002030F2000408A4
:100EEC00F3000A30F4007208840083130008F50044
:100EFC00F20A7308840075088000F30AF40B792F4A
:100F0C00003083120313C0000030C10000304102D6
:100F1C000A3003194002031C942F952F972FB42FDE
:100F2C00B42F4008363E84008313000887000A1251
:100F3C008A11CF260A128A11013083120313C007BB
:100F4C000318C10A0030C107003041020A300319EE
:100F5C004002031CB22FB32F972FB42F0800F03090
:100F6C0083160313880087018312031388018701FA
:100F7C00BF2F83120313081488100811081EC72FE3
:100F8C00C82FD32F0A128A1171270A128A110A123A
:100F9C008A11CF260A128A11D32F83120313081039
:100FAC0088140811081EDB2FDC2FE72F0A128A1178
:100FBC00EF260A128A110A128A11CF260A128A11F6
:100FCC00E72F83120313081088100815081EEF2F43
:100FDC00F02FBF2F0A128A1130270A128A110A1217
:100FEC008A11CF260A128A11BF2FBF2FBF2F0A12C8
:040FFC008A1100282E
:00000001FF
