:060000000A128A119E2D78
:100B3C0083010A128A11852E83160313940128301F
:100B4C00831203139400831603139101183093003E
:100B5C0008007008831203138800061486100730EF
:100B6C00F3007D30F200F20BB92DF30BB92D83128B
:100B7C000313061506110800F20072088312031302
:100B8C008800061086102130F1007630F000F00B52
:100B9C00CD2DF10BCD2D6400831203130615061118
:100BAC000800831603131114DB2D83128C1DDF2D0B
:100BBC00E02DDB2D8C110D30F800A330F700BD308B
:100BCC00F600F60BE72DF70BE72DF80BE72D64007D
:100BDC00A030831203139300F32D8C1DF62DF72DEB
:100BEC00F32D8C1170089300FB2D8C1DFE2DFF2D09
:100BFC00FB2D8C1172089300032E8C1D062E072ED4
:100C0C00032E8C11740893000B2E8C1D0E2E0F2EA0
:100C1C000B2E8C11831603131115142E83128C1D9D
:100C2C00182E192E142E8C11080083160313111470
:100C3C001F2E83128C1D232E242E1F2E8C11A030C0
:100C4C009300282E8C1D2B2E2C2E282E8C117408E4
:100C5C009300302E8C1D332E342E302E8C117608B2
:100C6C009300382E8C1D3B2E3C2E382E8C11831667
:100C7C0003139114412E83128C1D452E462E412EAA
:100C8C008C11A13093004A2E8C1D4D2E4E2E4A2EC7
:100C9C008C11831603139115532E83128C1D572E12
:100CAC00582E532E8C1183160313911611165E2E8B
:100CBC0083128C1D622E632E5E2E8C1183160313F1
:100CCC001115682E83128C1D6C2E6D2E682E8C11B6
:100CDC001308F800F9017808FA007908FB007B0882
:100CEC00F101F1077A08F001F0070A128A11AF2519
:100CFC000A128A1183120313130899000800831235
:100D0C000313870124308316031398009030831249
:100D1C0003139800403083160313990083120313B6
:100D2C00860183160313860188018312031388013D
:100D3C0038300A128A11C2250A128A110C300A1292
:100D4C008A11C2250A128A1110300A128A11C22580
:100D5C000A128A1106300A128A11C2250A128A1145
:100D6C0080300A128A11C2250A128A11C0300A1266
:100D7C008A11C2250A128A110A128A11A2250A1294
:100D8C008A110030F0000030F1000030F200003029
:100D9C00F3004130F4000030F5000A128A11D72517
:100DAC000A128A111A3083120313A2004530A100D3
:100DBC007E30A000A00BE02EA10BE02EA20BE02EAB
:100DCC000030F4000030F5000030F6000030F70081
:100DDC000A128A111B260A128A110030F000003008
:100DEC00F1000130F2000030F3004230F40000302A
:100DFC00F5000A128A11D7250A128A111A308312A9
:100E0C000313A2004530A1007E30A000A00B0C2FD4
:100E1C00A10B0C2FA20B0C2F0030F4000030F500AE
:100E2C000130F6000030F7000A128A111B260A1254
:100E3C008A110030F0000030F1000230F200003076
:100E4C00F3004330F4000030F5000A128A11D72564
:100E5C000A128A111A3083120313A2004530A10022
:100E6C007E30A000A00B382FA10B382FA20B382FEF
:100E7C000030F4000030F5000230F6000030F700CE
:100E8C000A128A111B260A128A110030F000003057
:100E9C00F1000330F2000030F3004430F400003075
:100EAC00F5000A128A11D7250A128A111A308312F8
:100EBC000313A2004530A1007E30A000A00B642FCC
:100ECC00A10B642FA20B642F0030F4000030F5004E
:100EDC000330F6000030F7000A128A111B260A12A2
:100EEC008A110030F0000030F1000430F2000030C4
:100EFC00F3004530F4000030F5000A128A11D725B2
:100F0C000A128A111A3083120313A2004530A10071
:100F1C007E30A000A00B902FA10B902FA20B902F36
:100F2C000030F4000030F5000430F6000030F7001B
:100F3C000A128A111B260A128A110030F0000030A6
:100F4C00F1000530F2000030F3004630F4000030C0
:100F5C00F5000A128A11D7250A128A111A30831247
:100F6C000313A2004530A1007E30A000A00BBC2FC3
:100F7C00A10BBC2FA20BBC2F0030F4000030F500ED
:100F8C000530F6000030F7000A128A111B260A12EF
:100F9C008A110030F0000030F1000630F200003011
:100FAC00F3004730F4000030F5000A128A11D725FF
:100FBC000A128A111A3083120313A2004530A100C1
:100FCC007E30A000A00BE82FA10BE82FA20BE82F7E
:100FDC000030F4000030F5000630F6000030F70069
:100FEC000A128A111B260A128A11FC2FFC2F0A12D4
:040FFC008A1100282E
:00000001FF
