:060000000A128A11062815
:10000C0083010A168A118C2A803083120313D406BA
:10001C005508C5005608C6005708C7005208C80046
:10002C005308C9005408CA000A128A15A3220A12DE
:10003C008A11831203134508D2004608D3004708DF
:10004C00D4002828080083120313E1006E306102EB
:10005C00031C312832280F290330D5005508A40081
:10006C000A30F7000030F8006108D600D7015608B6
:10007C00F2005708F3006430F0000030F1000A166B
:10008C008A1130230A128A117108FA01FA077008D2
:10009C00F901F9070A168A11EF240A128A11770856
:1000AC00093E0A168A11DF210A128A11293E8400A0
:1000BC000A168A1100200A128A1183120313B50042
:1000CC000A168A1100200A128A11B6000A168A1121
:1000DC0000200A128A11B7000330D8005808A40077
:1000EC006430F7000030F8006108D900DA015908D3
:1000FC00F9005A08FA000A168A11EF240A128A111A
:10010C007708123E0A168A11DF210A128A11293E3B
:10011C0084000A168A1100200A128A118312031312
:10012C00B8000A168A1100200A128A11B9000A16A0
:10013C008A1100200A128A11BA000A168A11122793
:10014C000A128A11831203133508DE003608DF0009
:10015C003708E0000330D5005508A4006108D6002C
:10016C00D7015608F2005708F3000A30F0000030AF
:10017C00F1000A168A1130230A128A1170080A1625
:10018C008A11DF210A128A11293E84000A168A116B
:10019C0000200A128A1183120313B5000A168A1161
:1001AC0000200A128A11B6000A168A1100200A12BF
:1001BC008A11B7005E08B8005F08B9006008BA0081
:1001CC000A168A1112270A128A1183120313350890
:1001DC00DB003608DC003708DD000030B5000030ED
:1001EC00B6003F30B7005B08B8005C08B9005D088A
:1001FC00BA000A168A1112270A128A1183120313E3
:10020C003508D2003608D3003708D400D329D329B7
:10021C009F290B306102031C142915299F290330D7
:10022C00D5005508A4006108D600D7015608F20085
:10023C005708F3000A30F0000030F1000A168A115A
:10024C0030230A128A1170080A168A11DF210A1249
:10025C008A11293E84000A168A1100200A128A117A
:10026C0083120313B5000A168A1100200A128A1190
:10027C00B6000A168A1100200A128A11B700033040
:10028C00D8005808A4000A30F7000030F8006108C4
:10029C00D900DA015908F9005A08FA000A168A112D
:1002AC00EF240A128A117708093E0A168A11DF21F7
:1002BC000A128A11293E84000A168A1100200A1299
:1002CC008A1183120313B8000A168A1100200A122D
:1002DC008A11B9000A168A1100200A128A11BA0072
:1002EC000A168A1112270A128A118312031335086F
:1002FC00DE003608DF003708E0000030B5000030C3
:10030C00B6003F30B7005E08B8005F08B90060085F
:10031C00BA000A168A1112270A128A1183120313C1
:10032C003508D2003608D3003708D400D329D32996
:10033C009F290030B5000030B6003F30B7000330C5
:10034C00D5005508A40061080A168A11DF210A128B
:10035C008A11293E84000A168A1100200A128A1179
:10036C0083120313B8000A168A1100200A128A118C
:10037C00B9000A168A1100200A128A11BA000A164C
:10038C008A1112270A128A11831203133508D2001C
:10039C003608D3003708D400D3290800831603137A
:1003AC00B200633083120313E6006608831603134E
:1003BC00A400DD2F3608253A0319E529E629FA2988
:1003CC00360883120313E6008316031332088400E5
:1003DC00831203136608831380000130E60066085D
:1003EC0083160313B207DD2F0030A5000030A600E2
:1003FC00042AF62F26151C2ADD2F1C2A0001013891
:10040C0083120313E2070001FF38620784000A1607
:10041C008A1100200A128A1183160313B600003ABF
:10042C000319F62F663A0319002ADD2F0030250533
:10043C0083120313E6000730831603132605831279
:10044C000313E7006708660403192D2A2E2AB62F1A
:10045C00063083160313A7000030A800240884007C
:10046C0083130008B300840A0008B400840A00084F
:10047C00B500033083120313E600660883160313DA
:10048C00A4073308F0003408F1003508F2000030FE
:10049C00F3000030F4000030F5000A168A119A239C
:1004AC000A128A1103185B2A5C2A762A8316031314
:1004BC003308F0003408F1003508F2000A168A11EE
:1004CC00C0210A128A11700883160313B300710835
:1004DC00B4007208B5000330A5040030A604762AD7
:1004EC00003083160313B0000030B100350834041B
:1004FC0033040319822A832A812BB330840083139B
:10050C00000883120313E600840A0008E700840A3B
:10051C000008E800840A0008E9000F300310E90C19
:10052C00E80CE70CE60CFF3E031D942AFF30660531
:10053C00EA0000306705EB006A08823E831603135D
:10054C00B000831203136B080318013EFF3E8316A1
:10055C000313B100FF30B0070318B10AFF30B10725
:10056C000330F0000030F1003108F301F3073008DC
:10057C00F201F2070A168A11FE210A128A11710879
:10058C0083160313B101B1077008B001B0070A302C
:10059C00F7000030F8003108FA01FA073008F901C9
:1005AC00F9070A168A11EF240A128A1178088316A1
:1005BC000313B101B1077708B001B007B11FE72AE7
:1005CC00E82AEF2AFF30B0070318B10AFF30B10751
:1005DC00EF2A3003FF3A0A128A1541250A128A11B2
:1005EC0083120313450883160313AD008312031300
:1005FC00460883160313AE008312031347088316B1
:10060C000313AF00330883120313B50083160313CF
:10061C00340883120313B6008316031335088312B0
:10062C000313B700831603132D0883120313B800AA
:10063C00831603132E0883120313B90083160313B6
:10064C002F0883120313BA000A168A1112270A12F2
:10065C008A1183120313350883160313AD0083121A
:10066C000313360883160313AE00831203133708E3
:10067C0083160313AF002D08F0002E08F1002F088D
:10068C00F2000030F3008030F4003F30F5000A1621
:10069C008A119A230A128A110318552B562B5F2B99
:1006AC00FF3083160313B0070318B10AFF30B107EC
:1006BC00812B831603132D08F0002E08F1002F0850
:1006CC00F2000030F3002030F4004130F5000A163F
:1006DC008A119A230A128A11031C752B762B812BF3
:1006EC00013083160313B0070318B10A0030B107A9
:1006FC00812B812B812B831603132808803AFF0052
:10070C0080307F02031D8C2B0D30270203188F2B9A
:10071C00902BCA2B8316031327080A128A1129203F
:10072C000A128A11831203135208C5005308C6001B
:10073C005408C70083160313330883120313C8002D
:10074C0083160313340883120313C900831603138F
:10075C00350883120313CA000A128A15A3220A123F
:10076C008A1183120313450883160313B3008312F3
:10077C000313460883160313B400831203134708AC
:10078C0083160313B500CA2B831603133108803A62
:10079C00FF0080307F02031DD52B0A303002031876
:1007AC00D82BD92B112C831603133508340433049E
:1007BC000319E12BE22B982C330883120313A700A7
:1007CC0083160313340883120313A8008316031330
:1007DC00350883120313A9000A128A1514200A1271
:1007EC008A11831203132A08290428042704031DE1
:1007FC00002C012C982C831603133108803AFF002F
:10080C0080307F02031D0C2C02303002031C0F2C95
:10081C00102C982C112C831603132D08F0002E0885
:10082C00F1002F08F2007030F3008930F4004030F2
:10083C00F5000A168A119A230A128A110318272C1A
:10084C00282C312CF73083160313B0070318B10A88
:10085C00FF30B1073A2CF83083160313B007031896
:10086C00B10AFF30B1073A2C30080A128A1541251B
:10087C000A128A1183120313450883160313AD0061
:10088C0083120313460883160313AE00831203135B
:10089C00470883160313AF003308F0003408F10047
:1008AC003508F2002D08F3002E08F4002F08F5008F
:1008BC000A128A15ED230A128A1173088316031380
:1008CC00A3007208A2007108A1007008A0003308F0
:1008DC00F0003408F1003508F2002D08F3002E0862
:1008EC00F4002F08F5000A168A1130260A128A1114
:1008FC00730883160313A3007208A2007108A100E9
:10090C007008A000892C2308AC002208AB00210839
:10091C00AA002008A9000030B3000030B400003059
:10092C00B5000A2D83160313330883120313A70093
:10093C0083160313340883120313A80083160313BE
:10094C00350883120313A9000A128A1514200A12FF
:10095C008A11831203132A0883160313AC00831223
:10096C000313290883160313AB00831203132808FF
:10097C0083160313AA008312031327088316031389
:10098C00A9002C08FB002B08FA002A08F9002908FA
:10099C00F8000A168A1156220A128A117808831254
:1009AC000313D2007908D3007A08D40083160313FA
:1009BC00330883120313D5008316031334088312F0
:1009CC000313D60083160313350883120313D700C1
:1009DC000A128A110A200A128A118312031352086E
:1009EC0083160313B30083120313530883160313E4
:1009FC00B40083120313540883160313B50000309C
:100A0C00B0000030B1000A2DB6010314B60D360843
:100A1C000A3A031D122D132D152D6C2D6C2D360835
:100A2C0083120313E60001300310E60DFF3E031D95
:100A3C001A2D0310660D013E84000A168A1100203F
:100A4C000A128A11E7000A168A1100200A128A116A
:100A5C00E8000A168A1100200A128A11E9000A1607
:100A6C008A1100200A128A11EA006A0883160313FD
:100A7C002C02031D572D83120313690883160313CD
:100A8C002B02031D572D83120313680883160313BF
:100A9C002A02031D572D83120313670883160313B1
:100AAC00290203185A2D5B2D5D2D6C2D6C2D0130F8
:100ABC0083120313E600660883160313B607360881
:100ACC000A3A031D6A2D6B2D152D6C2D033025054F
:100ADC0083120313E60000308316031326058312DA
:100AEC000313E7006708660403197D2D7E2DF62D90
:100AFC002D30E6008316031332088400831203138F
:100B0C006608831380000130E60066088316031321
:100B1C00B207F62DF62D003083120313A30000301C
:100B2C00A2000030A1000A30A0008316031336087F
:100B3C0083120313E60001300310E60DFF3E031D84
:100B4C00A22D0310660D013E84000A168A110020A6
:100B5C000A128A11F0000A168A1100200A128A1150
:100B6C00F1000A168A1100200A128A11F2000A16E4
:100B7C008A1100200A128A11F300831603132C0821
:100B8C00F7002B08F6002A08F5002908F4000A16CD
:100B9C008A1106240A128A11730883120313A70000
:100BAC007208A6007108A5007008A4000A168A1124
:100BBC00D2220A128A11831203132008303EE70056
:100BCC0083160313320884008312031367088313FC
:100BDC0080000130E600660883160313B207F62D79
:100BEC00FF308312E600660883160313B607360837
:100BFC00FF3A031D022E032E912D1F2E1F2E303077
:100C0C0083120313E6008316031332088400831245
:100C1C0003136608831380000130E6006608831610
:100C2C000313B207FF30B0070318B10AFF30B10746
:100C3C001F2E3108803AFF0080307F02031D282EC2
:100C4C000130300203182B2E2C2E052E2D2E831640
:100C5C0003132808803AFF0080307F02031D382ED2
:100C6C0009302702031C3B2E3C2E452E08308312E4
:100C7C000313E600660883160313B6004F2E831683
:100C8C000313270883120313E60066088316031365
:100C9C00B600360883120313E600E701E61BE703F0
:100CAC00660883160313A7028312031367088316BF
:100CBC000313031CA803A8023608031D662E7A2E04
:100CCC002E3083120313E6008316031332088400BC
:100CDC00831203136608831380000130E600660854
:100CEC0083160313B2077A2E36080A128A15412589
:100CFC000A128A11831203134508B8004608B9007A
:100D0C004708BA0083160313330883120313B50084
:100D1C0083160313340883120313B60083160313CC
:100D2C00350883120313B7000A168A1112270A1208
:100D3C008A11831203133508A7003608A800370858
:100D4C00A9000A128A1514200A128A11831203139D
:100D5C002A0883160313AC00831203132908831685
:100D6C000313AB0083120313280883160313AA0082
:100D7C0083120313270883160313A900842F003052
:100D8C0083120313A3000030A2000030A1000A302C
:100D9C00A00083160313360883120313E6000130F8
:100DAC000310E60DFF3E031DD62E0310660D013E0B
:100DBC0084000A168A1100200A128A11F0000A1601
:100DCC008A1100200A128A11F1000A168A110020D9
:100DDC000A128A11F2000A168A1100200A128A11CC
:100DEC00F300831603132C08F7002B08F6002A08CF
:100DFC00F5002908F4000A168A1106240A128A1131
:100E0C00730883120313A7007208A6007108A500CB
:100E1C007008A4000A168A11D2220A128A118312AF
:100E2C0003132008303EE7008316031332088400B6
:100E3C00831203136708831380000130E6006608F1
:100E4C0083160313B207360883120313E60001302E
:100E5C000310E60DFF3E031D2E2F0310660D013E01
:100E6C0084000A168A1100200A128A11A0000A16A0
:100E7C008A1100200A128A11A1000A168A11002078
:100E8C000A128A11A2000A168A1100200A128A116B
:100E9C00A300831603132C0883120313A7008316D5
:100EAC0003132B0883120313A600831603132A08BB
:100EBC0083120313A500831603132908831203134B
:100ECC00A4000A168A11D2220A128A118312031361
:100EDC00230883160313AC00831203132208831612
:100EEC000313AB0083120313210883160313AA0008
:100EFC0083120313200883160313A900FF308312F7
:100F0C000313E600660883160313B6073608FF3A88
:100F1C00031D912F922FC52EAE2FAE2F3030831282
:100F2C000313E600831603133208840083120313A1
:100F3C006608831380000130E600660883160313ED
:100F4C00B207FF30A7070318A80AFF30A807AE2F77
:100F5C0028082704031DB32FB42F942FDD2FDD2F6A
:100F6C00033083160313250583120313E6000030A8
:100F7C0083160313260583120313E7006708660420
:100F8C000319C92FCA2FDD2F2D30E600831603134A
:100F9C003208840083120313660883138000013027
:100FAC00E600660883160313B207DD2FDD2F000160
:100FBC0001388312E2070001FF38620784000A1629
:100FCC008A1100200A128A11E600660883160313A0
:100FDC00B600B608031DF32FF42FE029F62FF62FD9
:100FEC000310320884000030031801308313800092
:100FFC00FF2F0800F2007208831203138800861179
:10100C004130F100EE30F000F00B0A28F10B0A2809
:10101C0064008312031306160612080083120313CE
:10102C002708AB002808AC002908AD0003102C0DD4
:10103C002D0DAE002E08B400B408031D2628272859
:10104C0031280030AA000030A9000030A800003080
:10105C00A700B928B9282708AB002808AC00290834
:10106C00AD0017300310AD0CAC0CAB0CFF3E031DE8
:10107C0038282B08AE002E08AF00A817FF30A705A4
:10108C00FF30A8050030A9052708B0002808B100DA
:10109C002908B200B3018E30B402B41F5628572869
:1010AC007C283408803A8F3E03185D285E28692816
:1010BC000030AA000030A9000030A8000030A700C2
:1010CC00B928B928692801300310B30CB20CB10C43
:1010DC00B00CFF3E031D6A280130AB002B08B4078F
:1010EC00031D79287A286928A028A02818303402F2
:1010FC00031C8128822899280030AA000030A900FE
:10110C000030A8000030A700B928B9289928013070
:10111C00AB000310B00DB10DB20DB30DAB0B8F289E
:10112C000130B4029928B408031D9D289E288D28EF
:10113C00A028A0282F08031DA428B028B009B109A5
:10114C00B209B309B00A0319B10A0319B20A031997
:10115C00B30AB0283308AA003208A9003108A80045
:10116C003008A700B92808000130831203139F0030
:10117C008030831603139F00831203131F15C62898
:10118C001F19C928CA28C628CB2805308316031373
:10119C00C7000030C800C030C4007F30C5004430E8
:1011AC00C60080300A128A1500200A128A15831292
:1011BC0003131E08EC00ED010830FF000310EC0DCA
:1011CC00ED0DFF0BE428831603131E088312031383
:1011DC006C04F8006D08F9000A168A112A220A120A
:1011EC008A15780883160313C1007908C2007A089F
:1011FC00C3004408F8004508F9004608FA00410805
:10120C00FB004208FC004308FD000A168A116A25FF
:10121C000A128A15780883160313C9007908CA00C4
:10122C007A08CB004808F901F9074708F801F807D4
:10123C000A168A112A220A128A15780883120313B5
:10124C00B5007908B6007A08B7008316031349086D
:10125C0083120313B800831603134A088312031373
:10126C00B900831603134B0883120313BA000A1632
:10127C008A1112270A128A15831203133508831652
:10128C000313C90083120313360883160313CA0011
:10129C0083120313370883160313CB0077308312A2
:1012AC000313EC006C08E200831603134908831245
:1012BC000313E300831603134A0883120313E40099
:1012CC00831603134B0883120313E500B7300A127D
:1012DC008A11D4210A128A15003083160313CC000C
:1012EC000030CD004D08803AFF0080307F02031D96
:1012FC00812905304C02031C842985298729AA29B8
:10130C00AA29831603134D08F101F1074C08F001CB
:10131C00F0070A168A11CC210A128A15013083169D
:10132C000313CC070318CD0A0030CD074D08803AC3
:10133C00FF0080307F02031DA52905304C02031CE1
:10134C00A829A9298729AA2908008312031307149D
:10135C00871409309F008030831603139F0083127B
:10136C0003131F15B9291F19BC29BD29B929BE2979
:10137C001E08F000F1010830FF000310F00DF10D14
:10138C00FF0BC329831603131E087004F4007108A5
:10139C00F5000530831203139200243083160313D7
:1013AC00920002308312031395000C30970000302A
:1013BC00F2000030F3007308803AFF0080307F02A7
:1013CC00031DEA2925307202031CED29EE29F029B0
:1013DC00112A112A72088312031395002130F1008F
:1013EC007630F000F00BF829F10BF829640001308D
:1013FC00F2070318F30A0030F3077308803AFF0072
:10140C0080307F02031D0C2A25307202031C0F2A28
:10141C00102AF029112A7508803AFF0081307F02CA
:10142C00031D1A2AF530740203181D2A1E2A2E2AAF
:10143C008312031386140611861206134130F10031
:10144C00EE30F000F00B282AF10B282A64002E2A2B
:10145C007508803AFF0080307F02031D372A0B305D
:10146C00740203183A2A3B2A4B2A83120313861060
:10147C000615861206134130F100EE30F000F00B29
:10148C00452AF10B452A64004B2A7508803AFF0067
:10149C0080307F02031D542A153074020318572A1A
:1014AC00582A682A8312031386100611861606130F
:1014BC004130F100EE30F000F00B622AF10B622AA1
:1014CC006400682A7508803AFF0080307F02031D93
:1014DC00712A1F3074020318742A752A852A831204
:1014EC00031386140611861206134130F100EE30F8
:1014FC00F000F00B7F2AF10B7F2A6400852A750817
:10150C00803AFF0089307F02031D8E2AC530740299
:10151C000318912A922AA22A831203138614061105
:10152C00861606134130F100EE30F000F00B9C2AC9
:10153C00F10B9C2A6400A22A0800831203134508AD
:10154C00CB004608CC004708CD0003104C0D4D0DC8
:10155C00CE004E08D1004808CB004908CC004A0800
:10156C00CD0003104C0D4D0DCE004E08D00051088F
:10157C00031DC12AD22A500851020318C62AC72AB1
:10158C00DA2A5103FF3A5007CB0019304B02031CE7
:10159C00D02AD12ADA2AD22A4808C5004908C6001E
:1015AC004A08C700EC2BEC2B5008031DDE2AEE2A50
:1015BC00510850020318E32AE42AEF2A5003FF3A99
:1015CC005107CB0019304B02031CED2AEE2AEF2AEF
:1015DC00EC2B0630CB004B08CF00C71FF62AF72A9E
:1015EC00F82ACF17CA1FFB2AFC2AFD2A4F17C61749
:1015FC00FF30C505FF30C6050030C705C917FF30E1
:10160C00C805FF30C9050030CA055008510203183F
:10161C00102B112B422B122B01300310C80DC90DAE
:10162C00CA0DFF3E031D132B0130D002500851068A
:10163C000319212B222B3A2B0130CF024F080739EB
:10164C00031D292B2A2B122B3A2B3A2B3A2B013028
:10165C000310C70CC60CC50CFF3E031D2E2B01300E
:10166C00CB004B08D1073A2B51085006031D3F2BDA
:10167C00402B2D2B792B792B510850020318472B1B
:10168C00482B792B492B01300310C50DC60DC70D06
:10169C00FF3E031D4A2B0130D1025008510603199D
:1016AC00582B592B712B0130CF024F080739031DD2
:1016BC00602B612B492B712B712B712B013003107B
:1016CC00CA0CC90CC80CFF3E031D652B0130CB00A6
:1016DC004B08D007712B51085006031D762B772B26
:1016EC00642B792B792BCF1F7C2B7D2B8E2BFF30F2
:1016FC00C506FF30C606FF30C7060130C5070030EF
:10170C0003180130C607003003180130C7078E2BB1
:10171C004F1F912B922BA32BFF30C806FF30C9060D
:10172C00FF30CA060130C807003003180130C90762
:10173C00003003180130CA07A32B03100030031824
:10174C000130CF004508C807460803110318460AA4
:10175C000319B12BC907470803110318470A0319CA
:10176C00B82BCA07CA1FBB2BBC2BD02BFF30C8060B
:10177C00FF30C906FF30CA060130C8070030031815
:10178C000130C907003003180130CA07CF01031418
:10179C00CF0DD02B4808F0004908F1004A08F200A0
:1017AC005108CB004B08F3004F08CC004C08F40058
:1017BC000A168A1174240A128A15700883120313EC
:1017CC00C5007108C6007208C700EC2B0800703009
:1017DC0084000008F600840A0008F700840A000858
:1017EC00F800840A0008F9000310780D790DFA004E
:1017FC007A0883120313A500A508031D062C072CD9
:10180C00112C0030F3000030F2000030F1000030F9
:10181C00F000402D402D733084000008F600840A3F
:10182C000008F700840A0008F800840A0008F90090
:10183C000310780D790DFA007A08A400A408031D92
:10184C00282C292C332C0030F3000030F20000300F
:10185C00F1000030F000402D402D7030840000303D
:10186C008004840A00308004840A80308004840A56
:10187C000030800470308400FF308005840AFF3013
:10188C008005840AFF308005840A0030800573309F
:10189C00840000308004840A00308004840A803084
:1018AC008004840A0030800473308400FF3080058B
:1018BC00840AFF308005840AFF308005840A0030DA
:1018CC0080050030A3000030A2000030A1000030E1
:1018DC00A0007F30A502A0302407F6007608A502F0
:1018EC002030F6007608A4007B2C0130F6000310A3
:1018FC00A00DA10DA20DA30DF60B7D2C7330840051
:10190C000008F600840A0008F700840A0008F800B2
:10191C00840A0008F900703084000008FA00840A78
:10192C000008FB00840A0008FC00840A0008FD0083
:10193C0079087D02031DAC2C78087C02031DAC2CAD
:10194C0077087B02031DAC2C76087A02031CAF2CA3
:10195C00B02CD32C733084000008F600840A0008E5
:10196C00F700840A0008F800840A0008F9007030B7
:10197C00840076088002840A7708031C770F8002A3
:10198C00840A7808031C780F8002840A7908031CE7
:10199C00790A8002033084022014703084000130F4
:1019AC000310800D840A800D840A800D840A800D3A
:1019BC00840384038403FF3E031DD62C0130A40250
:1019CC00031DE92CEA2C7B2CA51FED2CEE2C132DE2
:1019DC002508803A9F3E0318F42CF52C002D00307E
:1019EC00F3000030F2000030F1000030F000402D28
:1019FC00402D002D01300310A30CA20CA10CA00C47
:101A0C00FF3E031D012D0130F6007608A507031DCE
:101A1C00102D112D002D372D372D20302502031CB4
:101A2C00182D192D302D0030F3000030F20000304D
:101A3C00F1000030F000402D402D302D0130F6002B
:101A4C000310A00DA10DA20DA30DF60B262D013038
:101A5C00A502302DA508031D342D352D242D372D31
:101A6C00372D2308F3002208F2002108F10020088A
:101A7C00F000402D080083120313CD00CD1F472D1D
:101A8C00482DA52ECD09CD0A4D08803A123E031CD7
:101A9C00502D512D0F2E0330C8004808A4000A30D9
:101AAC00F7000030F8004D08F200F301F21BF303CD
:101ABC006430F0000030F1000A168A1130230A124B
:101ACC008A157108FA01FA077008F901F9070A1664
:101ADC008A11EF240A128A157708093E0A168A1110
:101AEC00DF210A128A15293E84000A168A11002069
:101AFC000A128A1583120313B5000A168A110020E4
:101B0C000A128A15B6000A168A1100200A128A15C2
:101B1C00B7000330C9004908A4006430F700003056
:101B2C00F8004D08F900FA01F91BFA030A168A119C
:101B3C00EF240A128A157708123E0A168A11DF2141
:101B4C000A128A15293E84000A168A1100200A12EC
:101B5C008A1583120313B8000A168A1100200A1280
:101B6C008A15B9000A168A1100200A128A15BA00C1
:101B7C000A168A1112270A128A15831203133508C2
:101B8C00CA003608CB003708CC000330C800480820
:101B9C00A4004D08F200F301F21BF3030A30F0002D
:101BAC000030F1000A168A1130230A128A157008C7
:101BBC000A168A11DF210A128A15293E84000A1698
:101BCC008A1100200A128A1583120313B5000A1613
:101BDC008A1100200A128A15B6000A168A110020F2
:101BEC000A128A15B7004A08B8004B08B9004C080D
:101BFC00BA000A168A1112270A128A1583120313C5
:101C0C003508C5003608C6003708C700FF2FFF2F60
:101C1C00832E4D08803A753E031C152E162E832EEE
:101C2C000330C8004808A4004D08F200F301F21B71
:101C3C00F3030A30F0000030F1000A168A11302349
:101C4C000A128A1570080A168A11DF210A128A15DF
:101C5C00293E84000A168A1100200A128A15831262
:101C6C000313B5000A168A1100200A128A15B60051
:101C7C000A168A1100200A128A15B7000330C9000F
:101C8C004908A4000A30F7000030F8004D08F900AC
:101C9C00FA01F91BFA030A168A11EF240A128A15A3
:101CAC007708093E0A168A11DF210A128A15293E85
:101CBC0084000A168A1100200A128A158312031353
:101CCC00B8000A168A1100200A128A15B9000A16E1
:101CDC008A1100200A128A15BA000A168A111227D4
:101CEC000A128A15831203133508C5003608C6007C
:101CFC003708C700FF2FFF2F832E0330C80048087A
:101D0C00A4004D080A168A11DF210A128A15293EF1
:101D1C0084000A168A1100200A128A1583120313F2
:101D2C00C5000A168A1100200A128A15C6000A1666
:101D3C008A1100200A128A15C700FF2FFF2F4D08A9
:101D4C00803A123E031CAB2EAC2E6A2F0330C80017
:101D5C004808A4000A30F7000030F8004D08F200E3
:101D6C00F301F21BF3036430F0000030F1000A16AB
:101D7C008A1130230A128A157108FA01FA077008C1
:101D8C00F901F9070A168A11EF240A128A15770845
:101D9C00093E0A168A11DF210A128A15503E840068
:101DAC000A168A1100200A128A1583120313B50031
:101DBC000A168A1100200A128A15B6000A168A1110
:101DCC0000200A128A15B7000330C9004908A40084
:101DDC006430F7000030F8004D08F900FA01F91BE7
:101DEC00FA030A168A11EF240A128A157708123E92
:101DFC000A168A11DF210A128A15503E84000A162F
:101E0C008A1100200A128A1583120313B8000A16CD
:101E1C008A1100200A128A15B9000A168A110020AC
:101E2C000A128A15BA000A168A1112270A128A1582
:101E3C00831203133508CA003608CB003708CC00D0
:101E4C000330C8004808A4004D08F200F301F21B4F
:101E5C00F3030A30F0000030F1000A168A11302327
:101E6C000A128A1570080A168A11DF210A128A15BD
:101E7C00503E84000A168A1100200A128A15831219
:101E8C000313B5000A168A1100200A128A15B6002F
:101E9C000A168A1100200A128A15B7004A08B800DF
:101EAC004B08B9004C08BA000A168A1112270A12FC
:101EBC008A15831203133508C5003608C600370887
:101ECC00C700FF2FFF2FDE2F4D08803A753E031CF5
:101EDC00702F712FDE2F0330C8004808A4004D0866
:101EEC00F200F301F21BF3030A30F0000030F100B2
:101EFC000A168A1130230A128A1570080A168A11DA
:101F0C00DF210A128A15503E84000A168A1100201D
:101F1C000A128A1583120313B5000A168A110020BF
:101F2C000A128A15B6000A168A1100200A128A159E
:101F3C00B7000330C9004908A4000A30F70000308C
:101F4C00F8004D08F900FA01F91BFA030A168A1178
:101F5C00EF240A128A157708093E0A168A11DF2126
:101F6C000A128A15503E84000A168A1100200A12A1
:101F7C008A1583120313B8000A168A1100200A125C
:101F8C008A15B9000A168A1100200A128A15BA009D
:101F9C000A168A1112270A128A158312031335089E
:101FAC00C5003608C6003708C700FF2FFF2FDE2FED
:101FBC000330C8004808A4004D080A168A11DF2116
:101FCC000A128A15503E84000A168A1100200A1241
:101FDC008A1583120313C5000A168A1100200A12EF
:101FEC008A15C6000A168A1100200A128A15C70023
:101FFC00FF2F080010308A000408840A820700347E
:10200C0001340034003400340A3400340034003419
:10201C006434003400340034E834033400340034C5
:10202C001034273400340034A034863401340034A6
:10203C00403442340F3400348034963498340034B5
:10204C000034E134F53405340034CA349A343B346A
:10205C00003480343F34CD34CC343D34D734233445
:10206C003C34123483343A34B734D1343834C63433
:10207C0027343734383486343534C034D63433349A
:10208C00CC342B343234703489343034E734DB3490
:10209C002E34E5343C341E344234A2340D34003436
:1020AC0080343F340034203441340034C83442345A
:1020BC0000347A34443440341C3446345034C33401
:1020CC004734243474344934973418344B34BC3486
:1020DC00BE344C346B346E344E34033415345034BB
:1020EC007934AD346034F334493471342534663486
:0220FC000034AE
:102380007208710470040319C629C729CA2980304C
:10239000F206CA29CB2908007008831203138800AB
:1023A00086150D30F300FB30F200F20BD529F30B4C
:1023B000D529DA29831203130616061208008312A0
:1023C0000313A6000310003003180130A500E8290C
:1023D000261CEB29EC29F1292408FC007C08A50720
:1023E000F1290310A40D0310A60CA608031DF9295A
:1023F000FA29E829FB292508FD2908000030F40006
:102400000030F500032A701C062A072A0D2A7208DC
:10241000F4070318F50A7308F50701300310F20DED
:10242000F30DFF3E031D0E2A01300310F10CF00CDA
:10243000FF3E031D152A71087004031D202A212A5E
:10244000032A222A7508F101F1077408F001F00748
:10245000292A08000310003003180130FD00F91F7D
:10246000322A332A3C2AF809F909F80A0319F90A29
:10247000FD010314FD0D3C2A7808F0007908F100F5
:10248000F2018E30FB007B08F3007D08FC007C0825
:10249000F4000A168A1174240A168A117008F800CA
:1024A0007108F9007208FA00552A08008E30FC0005
:1024B0007C08FD00692A01300310FB0CFA0CF90CB2
:1024C000F80CFF3E031D5C2A0130FC007C08FD0770
:1024D000692AFF307B05031D6E2A6F2A5B2A702A4A
:1024E0007808F0007908F1007A08F2007D08FC0015
:1024F0007C08F3000310003003180130F4000A16C2
:102500008A1174240A168A117008F8007108F900FB
:102510007208FA008B2A0800FF3083160313850027
:102520008701831203138701831603138801831223
:1025300003138801860183160313860138300A12BB
:102540008A1500200A168A110C300A128A150020FA
:102550000A168A1110300A128A1500200A168A11EA
:1025600006300A128A1500200A168A1180300A12D3
:102570008A1500200A168A11C0300A128A15002016
:102580000A168A11C32A0A128A15BA200A168A1153
:102590000A128A15AB210A168A11C32AC32A0A1203
:1025A0008A11002883120313230822042104200423
:1025B0000319DB2ADC2A262BA9010314A90DEE2A14
:1025C0000130A8000310A00DA10DA20DA30DA80BB2
:1025D000E22A0130A8002808A907EE2AA31FF12A41
:1025E000F22AE02AF42AF42A23082702031D022BE8
:1025F00022082602031D022B21082502031D022B9F
:1026000020082402031C052B062B152B2008A402EE
:102610002108031C210FA5022208031C220FA60279
:102620002308031C230FA702152B01300310A30C52
:10263000A20CA10CA00CFF3E031D162B0130A90219
:10264000031D232B242BF42A262B262B2708A3003B
:102650002608A2002508A1002408A0002F2B0800AE
:102660000310003003180130F600F31F382B392B0C
:10267000422BF209F309F20A0319F30AF6010314D3
:10268000F60D422BF11F452B462B4C2BF009F1097F
:10269000F00A0319F10A4C2B710870040319512B2D
:1026A000522B882BF5010314F50D622B013003101A
:1026B000F00DF10DFF3E031D572B0130F40074089F
:1026C000F507622BF11F652B662B562B682B682BA9
:1026D00071087302031D6E2B70087202031C712BAC
:1026E000722B792B7008F2027108031CF303F302BA
:1026F000792B01300310F10CF00CFF3E031D7A2BF7
:102700000130F502031D852B862B682B882B882B27
:102710007608031D8C2B922BF209F309F20A031998
:10272000F30A922B7308F101F1077208F001F00728
:10273000992B0800F21F9D2B9E2BC42B0030F60016
:102740000030F7008030F8007009F9007109FA00D4
:102750007209FB00F90A0319FA0A0319FB0A79083E
:10276000F6077A0803187A0FB62BB72BF7077B0802
:1027700003187B0FBC2BBD2BF8077608F0007708F9
:10278000F1007808F200C42BF51FC72BC82BEE2BE5
:102790000030F6000030F7008030F8007309F900CF
:1027A0007409FA007509FB00F90A0319FA0A0319FA
:1027B000FB0A7908F6077A0803187A0FE02BE12B59
:1027C000F7077B0803187B0FE62BE72BF807760843
:1027D000F3007708F4007808F500EE2B8030F2065D
:1027E0008030F50675087202031DFC2B7408710217
:1027F000031DFC2B730870020318FF2B002C022C06
:102800000310052C0314052C052C08000030FC00D7
:102810000030FB000030FA000030F9007308720449
:10282000710470040319152C162C6A2CFD01031475
:10283000FD0D282C0130F8000310F00DF10DF20D04
:10284000F30DF80B1C2C0130F8007808FD07282C3C
:10285000F31F2B2C2C2C1A2C2E2C2E2C0130F80094
:102860000310F90DFA0DFB0DFC0DF80B302C73085D
:102870007702031D452C72087602031D452C710852
:102880007502031D452C70087402031C482C492C4A
:10289000592C7008F4027108031C710FF5027208BC
:1028A000031C720FF6027308031C730FF7027914EE
:1028B000592C01300310F30CF20CF10CF00CFF3E1C
:1028C000031D5A2C0130FD02031D672C682C2E2C91
:1028D0006A2C6A2C7C08F3007B08F2007A08F1006D
:1028E0007908F000732C08007308031D782C802CE5
:1028F000720871047004031D7E2C7F2C962C802C92
:102900000030F0000030F1000030F200EE2CEE2C30
:10291000962C0130F5007508F30701300310F20C16
:10292000F10CF00CFF3E031D8E2C962CFE30720530
:10293000031D9B2C9C2C892CB42CB42C0130F5004D
:102940007508F3070130F007003003180130F10774
:10295000003003180130F20701300310F20CF10CC3
:10296000F00CFF3E031DAD2CFF307205031DB92C8A
:10297000BA2C9E2CC72CC72C0130F3020130031057
:10298000F00DF10DF20DFF3E031DBF2CC72CF11F02
:10299000CA2CCB2CBC2C7318CE2CCF2CD52CFF30B2
:1029A000F0057F30F105FF30F2050310F30C7308DA
:1029B000F500F601F70110300310F50DF60DF70DD7
:1029C000FF3E031DDC2C7508F0047608F10477083F
:1029D000F2047408031DED2CEE2CF217080003100E
:1029E00000300318013083120313A100F81FF92CE3
:1029F000FA2C032DF709F809F70A0319F80AA101BF
:102A00000314A10D032DFA1F062D072D102DF90912
:102A1000FA09F90A0319FA0A0130FB007B08A1063A
:102A20000030A2000030A300780877040319192DA4
:102A30001A2D582DA0010314A00D2A2D01300310CA
:102A4000F70DF80DFF3E031D1F2D0130FB007B0825
:102A5000A0072A2DF81F2D2D2E2D1E2D302D302DA7
:102A600001300310A20DA30DFF3E031D312D780888
:102A70007A02031D3D2D77087902031C402D412D5C
:102A8000492D7708F9027808031CFA03FA02221488
:102A9000492D01300310F80CF70CFF3E031D4A2DA1
:102AA0000130A002031D552D562D302D582D582DC7
:102AB0002108031D5C2D622DA209A309A20A031996
:102AC000A30A622D2308F801F8072208F701F70787
:102AD000692D08007B0883120313A0007C08A10065
:102AE0007D08A2000310210D220DA3002308A800D9
:102AF000A808031D7C2D7D2D852D0030F8000030A9
:102B0000F9000030FA002F2E2F2E7808A000790847
:102B1000A1007A08A2000310210D220DA3002308B2
:102B2000A900A908031D952D962D9E2D0030F800B3
:102B30000030F9000030FA002F2E2F2E0030A500B3
:102B40000030A6000030A70089302907A000200827
:102B5000A8027B08A0007C08A1007D08A20010301C
:102B60000310A20CA10CA00CFF3E031DB02D2008E9
:102B7000A3002308A9007808A0007908A1007A081A
:102B8000A20010300310A20CA10CA00CFF3E031DEC
:102B9000C22D2008A3002308A9068030A000200829
:102BA000A905FC17FF30FB05FF30FC050030FD05D3
:102BB000F917FF30F805FF30F9050030FA05183035
:102BC000A0002008A400E42D01300310A50DA60DDF
:102BD000A70DFF3E031DE52D7A087D02031DF62D8E
:102BE00079087C02031DF62D78087B02031CF92D61
:102BF000FA2D062E7808FB027908031C790FFC02D7
:102C00007A08031C7A0AFD022514062E01300310EF
:102C1000FB0DFC0DFD0DFF3E031D072E0130A40230
:102C2000031D132E142EE42D152E2508F000260862
:102C3000F1002708F2002808A0002008F300290866
:102C4000A1002108F4000A168A1174240A168A11B8
:102C50007008F8007108F9007208FA002F2E0800B9
:102C60007008F6007108F7007208F8000310770D7D
:102C7000780DF900790883120313A500A508031D38
:102C8000422E432E4D2E0030F3000030F200003073
:102C9000F1000030F000112F112F7308F6007408B6
:102CA000F7007508F8000310770D780DF900790822
:102CB000A400A408031D5D2E5E2E682E0030F300D4
:102CC0000030F2000030F1000030F000112F112F21
:102CD000F117FF30F005FF30F1050030F205F41771
:102CE000FF30F305FF30F4050030F5050030A30098
:102CF0000030A2000030A1000030A0007F30A5020B
:102D000098302407F6007608A5021830F6007608F9
:102D1000A4008A2E0130F6000310A00DA10DA20D13
:102D2000A30DF60B8C2E75087202031D9D2E7408E0
:102D30007102031D9D2E73087002031CA02EA12E8C
:102D4000AD2E7308F0027408031C740FF1027508AD
:102D5000031C750AF2022014AD2E01300310F00D91
:102D6000F10DF20DFF3E031DAE2E0130A402031D36
:102D7000BA2EBB2E8A2EA51FBE2EBF2EE42E2508EE
:102D8000803A973E0318C52EC62ED12E0030F30090
:102D90000030F2000030F1000030F000112F112F50
:102DA000D12E01300310A30CA20CA10CA00CFF3EED
:102DB000031DD22E0130F6007608A507031DE12E73
:102DC000E22ED12E082F082F18302502031CE92EE1
:102DD000EA2E012F0030F3000030F2000030F10045
:102DE0000030F000112F112F012F0130F6000310D9
:102DF000A00DA10DA20DA30DF60BF72E0130A5021B
:102E0000012FA508031D052F062FF52E082F082FCB
:102E10002308F3002208F2002108F1002008F00046
:102E2000112F0800831203133508BB003608BC00BD
:102E30003708BD0003103C0D3D0DBE003E08BF002D
:102E4000BF08031D242F252F2D2F0030B500003083
:102E5000B6000030B700FF2FFF2F3808BB0039083D
:102E6000BC003A08BD0003103C0D3D0DBE003E08FD
:102E7000C400C408031D3D2F3E2F462F0030B5006F
:102E80000030B6000030B700FF2FFF2F44087B3E14
:102E9000BB003B08BF073508BB003608BC0037083D
:102EA000BD0010300310BD0CBC0CBB0CFF3E031D5D
:102EB000522F3B08BE003E08C4003808BB0039084A
:102EC000BC003A08BD0010300310BD0CBC0CBB0C9C
:102ED000FF3E031D642F3B08BE003E08C406803041
:102EE000BB003B08C405B617B917FF30B805FF3063
:102EF000B9050030BA050030C0000030C100003014
:102F0000C2000730BB003B08C300862F351C892F49
:102F10008A2F9B2F3808C007390803110318390A74
:102F20000319932FC1073A08031103183A0A03192A
:102F30009A2FC2079B2F01300310B70CB60CB50CAB
:102F4000FF3E031D9C2F01300310B80DB90DBA0DC3
:102F5000FF3E031DA42F0130C302031DB02FB12F6C
:102F6000862FB22F0930BB003B08C300B72F351C9A
:102F7000BA2FBB2FCC2F3808C0073908031103180C
:102F8000390A0319C42FC1073A08031103183A0A72
:102F90000319CB2FC207CC2F01300310B70CB60C8E
:102FA000B50CFF3E031DCD2F01300310C20CC10C28
:102FB000C00CFF3E031DD52F0130C302031DE12FBE
:102FC000E22FB72FE32F4008F0004108F10042083C
:102FD000F2003F08BB003B08F3004408BC003C087B
:102FE000F4000A168A1174240A168A1170088312D2
:102FF0000313B5007108B6007208B700FF2F080070
:00000001FF
