:060000000A128A11CC2D4A
:100B980083010A128A11112E831203132208880076
:100BA800071487100A128A11F1250A128A11831272
:100BB8000313071507110800F200720883120313C4
:100BC8008800071087100A128A11F1250A128A1163
:100BD800831203130715071108000030F0000030D6
:100BE800F10027307102103003197002031CFD2D2B
:100BF800FE2D002E102E102E0130F0070318F10ADA
:100C08000030F10727307102103003197002031CFD
:100C18000E2E0F2E002E102E0800831603138701A8
:100C280083120313870183160313880183120313A6
:100C38008801831603138601831203138601383053
:100C48000A128A11E0250A128A110C300A128A1136
:100C5800E0250A128A1110300A128A11E0250A12B8
:100C68008A1106300A128A11E0250A128A11803088
:100C78000A128A11E0250A128A11C0300A128A1152
:100C8800E0250A128A11482E0A128A1137270A12F9
:100C98008A11482E482E0A128A11002803100030A3
:100CA8000318013083120313A100FC1F5C2E5D2E74
:100CB800662EFB09FC09FB0A0319FC0AA1010314AF
:100CC800A10D662EFA1F692E6A2E702EF909FA09EF
:100CD800F90A0319FA0A702E7A0879040319752E8D
:100CE800762EAC2EA0010314A00D862E0130031021
:100CF800F90DFA0DFF3E031D7B2E0130FD007D0826
:100D0800A007862EFA1F892E8A2E7A2E8C2E8C2EDC
:100D18007A087C02031D922E79087B02031C952E0B
:100D2800962E9D2E7908FB027A08031CFC03FC0210
:100D38009D2E01300310FA0CF90CFF3E031D9E2E68
:100D48000130A002031DA92EAA2E8C2EAC2EAC2E8B
:100D58002108031DB02EB62EFB09FC09FB0A031956
:100D6800FC0AB62E7C08FA01FA077B08F901F90794
:100D7800BD2E08000310003003180130F600F11FE3
:100D8800C62EC72ED02EF009F109F00A0319F10A70
:100D9800F6010314F60DD02EF31FD32ED42EDD2E1C
:100DA800F209F309F20A0319F30A0130F40074088E
:100DB800F6060030F7000030F800710870040319D7
:100DC800E62EE72E252FF5010314F50DF72E013039
:100DD8000310F00DF10DFF3E031DEC2E0130F40061
:100DE8007408F507F72EF11FFA2EFB2EEB2EFD2EB9
:100DF800FD2E01300310F70DF80DFF3E031DFE2EEA
:100E080071087302031D0A2F70087202031C0D2F4C
:100E18000E2F162F7008F2027108031CF303F30259
:100E28007714162F01300310F10CF00CFF3E031D50
:100E3800172F0130F502031D222F232FFD2E252FFA
:100E4800252F7608031D292F2F2FF709F809F70AF0
:100E58000319F80A2F2F7808F101F1077708F00134
:100E6800F007362F08000130831203139F008030EB
:100E7800831603139F00831203131F15432F1F1993
:100E8800462F472F432F482F80300A128A11E0251A
:100E98000A128A11831203131E08A400A501083040
:100EA800FF000310A40DA50DFF0B552F8316031388
:100EB8001E08831203132404A6002508A700E8309F
:100EC800F0000330F1002708F301F3072608F201C8
:100ED800F2070A128A11BE260A128A117008303ED9
:100EE80083120313A20071080318013E003EA300F9
:100EF8000A128A11D0250A128A110A30F900003024
:100F0800FA006430F0000030F10083120313270860
:100F1800F301F3072608F201F2070A128A11BE2626
:100F28000A128A117108FC01FC077008FB01FB0713
:100F38000A128A1152260A128A117908303E83123F
:100F48000313A2007A080318013E003EA3000A1208
:100F58008A11D0250A128A110A30F9000030FA00E5
:100F68000A30F0000030F100831203132708F30160
:100F7800F3072608F201F2070A128A11BE260A129E
:100F88008A117108FC01FC077008FB01FB070A12B3
:100F98008A1152260A128A117908303E83120313E5
:100FA800A2007A080318013E003EA3000A128A1123
:100FB800D0250A128A110A30F9000030FA0083128B
:100FC80003132708FC01FC072608FB01FB070A128C
:100FD8008A1152260A128A117908303E83120313A5
:100FE800A2007A080318013E003EA3000A128A11E3
:080FF800D0250A128A1108003D
:00000001FF
