:100000000A128A11B52E00308A000408840A820779
:10001000003444344134543441342C344134443475
:100020004434523420345434523441344E345334F2
:10003000003441344C344C34203447344F344F3442
:040040004434003410
:100D6A0083010A128A11592F70088312031386000D
:100D7A0007148316031314118312031387140730FD
:100D8A00F3007D30F200F20BC82EF30BC82E83124B
:100D9A00031387100800F2007208831203138600F7
:100DAA0007108316031314118312031387140730D1
:100DBA00F1007D30F000F00BE02EF10BE02E8312F3
:100DCA00031387100800F8000030F9000030FA0019
:100DDA00082F7908780784000A128A1103200A1258
:100DEA008A11F600F7017608F0007708F1000A1276
:100DFA008A11B9260A128A110130F9070318FA0A68
:100E0A000030FA07082F7A08803AF6007508803A07
:100E1A007602031D122F74087902031C152F162F50
:100E2A00EE2E172F0800F8008312031308108810FB
:100E3A0078089900202F0C1E232F242F202F0C1204
:100E4A000230F7004430F600A930F500F50B2B2FDD
:100E5A00F60B2B2FF70B2B2F640074088312031346
:100E6A009900372F0C1E3A2F3B2F372F0C12780878
:100E7A00F500F6017508F0007608F1000A128A11E9
:100E8A00B9260A128A117408F500F6017508F000ED
:100E9A007608F1000A128A11B9260A128A118312F7
:100EAA00031308148814080080308316031387007C
:100EBA008312031387018316031386018312031314
:100ECA0086018316031388018312031388013830BD
:100EDA000A128A11D0260A128A110C300A128A11B1
:100EEA00D0260A128A1110300A128A11D0260A1242
:100EFA008A1106300A128A11D0260A128A11803003
:100F0A000A128A11D0260A128A11C0300A128A11CC
:100F1A00D0260A128A11831203130810881024306B
:100F2A0083160313980090308312031398004030FD
:100F3A008316031399000830F4000030F5001130CD
:100F4A000A128A11E8260A128A112630FD00E830B0
:100F5A00FC003E30FB00FB0BB02FFC0BB02FFD0B4F
:100F6A00B02FB72FB82F01300A128A11D0260A12D1
:100F7A008A114030FD002B30FC00C030FB00FB0B17
:100F8A00C42FFC0BC42FFD0BC42FCB2F4130FB0009
:100F9A007B08F40031300A128A1118270A128A11C2
:100FAA00831203130715C0300A128A11D0260A12B7
:100FBA008A110F30F4000030F50001300A128A114C
:100FCA00E8260A128A114030FD002B30FC00C0309E
:100FDA00FB00FB0BEE2FFC0BEE2FFD0BEE2FF52F7C
:100FEA0001300A128A11D0260A128A11B82FB82F94
:060FFA000A128A11002812
:00000001FF
