:060000000A128A11A92F6B
:100F520083010A128A11B82FFF3083120313920001
:100F6200B22F8C1CB52FB62FB22F8C100800831213
:100F7200031387018316031387010F3083120313B0
:100F82009700233083160313920002308312031357
:100F92009500CB2F0030F0000030F1007108803A4C
:100FA200FF0080307F02031DD82F24307002031C03
:100FB200DB2FDC2FDE2FCB2FCB2F700883120313F6
:100FC20095000A128A11AD270A128A110130F00720
:100FD2000318F10A0030F1077108803AFF008030EF
:100FE2007F02031DF62F24307002031CF92FFA2F03
:0E0FF200DE2FCB2FCB2FCB2F0A128A11002817
:00000001FF
